:020000040800F2
:10000000F807002099010008C7170008F315000839
:10001000C5170008170500088D1F00080000000024
:10002000000000000000000000000000D31B0008DA
:100030001905000800000000C91700081D1C000871
:10004000B3010008B3010008B3010008B3010008C0
:10005000B3010008B3010008B3010008B3010008B0
:10006000B3010008B3010008B3010008B3010008A0
:10007000B3010008B3010008B3010008B301000890
:10008000B3010008B3010008B3010008B301000880
:10009000B3010008B3010008B3010008B301000870
:1000A000B3010008811C0008B3010008B301000877
:1000B0008D1C0008B3010008B3010008B30100085B
:1000C000B3010008B3010008B3010008B301000840
:1000D000B3010008811F0008B3010008B301000844
:1000E000B3010008B3010008B301000800F002F8F2
:1000F00000F042F80AA090E8000C82448344AAF180
:100100000107DA4501D100F037F8AFF2090EBAE87D
:100110000F0013F0010F18BFFB1A43F0010318473B
:100120003826000058260000103A24BF78C878C14D
:10013000FAD8520724BF30C830C144BF04680C60ED
:10014000704700000023002400250026103A28BF35
:1001500078C1FBD8520728BF30C148BF0B60704739
:10016000752900F0AB80732900F09781002070475B
:100170001FB51FBD10B510BD00F093F91146FFF774
:10018000F7FF01F021FF00F0B1F903B4FFF7F2FF30
:1001900003BC00F0B9F9000009488047094800474E
:1001A000FEE7FEE7FEE7FEE7FEE7FEE7FEE7FEE727
:1001B000FEE7FEE704480549054A064B7047000084
:1001C0007F1C0008ED000008F8010020F80700205F
:1001D000F8030020F80300200FB41CB5074B06AA53
:1001E0007B4469460090059800F02DF9002069468F
:1001F00000F03CF91CBC5DF814FB00008902000013
:100200002DE9F0410E460446002020622046E168B8
:10021000884730B3252805D0D4E901219047206ACA
:10022000401CF2E7E168204600278847050018D007
:10023000A5F14100192802D820354FF40067324655
:10024000294620462760FFF78BFF40B1012804D0E4
:10025000F61D26F007060836D8E7361DD6E72846ED
:10026000DAE7206ABDE8F08170B50C460546012A40
:1002700005D02878800600D5EA69002302E0012332
:1002800005E05B1C934202D2E05C0028F9D1A8692A
:10029000E618C01AA861286A184428622846AFF3F5
:1002A000008004E0D5E9012114F8010B9047B44225
:1002B000F8D32846AFF3008070BD00002DE9F0416F
:1002C0000646002410687529314616A510D0AFF3F4
:1002D0000080002802DA404213A507E031688A074F
:1002E00001D512A502E0490704D511A5012401E0BA
:1002F000AFF3008000210A2206F1240709E0B0FBD9
:10030000F2FCB0FBF2F302FB1C00303078541846CC
:10031000491C0028F3D123462A463046BDE8F04167
:1003200000F032B8000000002D0000002B0000009B
:10033000200000004FF0000200B513469446964698
:10034000203922BFA0E80C50A0E80C50B1F12001E8
:10035000BFF4F7AF090728BFA0E80C5048BF0CC096
:100360005DF804EB890028BF40F8042B08BF7047F4
:1003700048BF20F8022B11F0804F18BF00F8012B66
:1003800070477047704770472DE9F0470D46994612
:100390009246044600F124080168880604D5E06905
:1003A00021F01001216000E00120A84201DD471B7F
:1003B00000E00027A1697A1902EB0900081AA06180
:1003C0002078C00602D42046AFF30080002608E063
:1003D000D4E901211AF806009047206A401C761CD7
:1003E00020624E45F4DB2078C0060AD52046AFF3E4
:1003F000008006E0D4E9012130209047206A401CAB
:100400002062381EA7F10107F4DC07E0D4E90121DE
:1004100018F805009047206A401C2062281EA5F1AC
:100420000105F3DC2046AFF300802078000602D5FA
:100430000220BDE8F0870120FBE7000001694A1CAB
:1004400002610878704700B58FB0CDE90131002115
:10045000059105497944CDE9031011466846FFF737
:10046000CFFE0FB000BD0000E5FFFFFF0A6802F8F5
:10047000010B0A60704710B5436913B1AFF30080F8
:1004800001E0FFF7F1FE012010BD127800F1240118
:100490000A7000224A700122EDE711684FF0FF3226
:1004A000E9E7754600F02CF8AE460500694653466C
:1004B00020F00700854618B020B5FFF77BFEBDE8A9
:1004C00020404FF000064FF000074FF000084FF0BB
:1004D000000B21F00701AC46ACE8C009ACE8C0094C
:1004E000ACE8C009ACE8C0098D46704710B50446B9
:1004F000AFF300802046BDE81040FFF746BE000085
:10050000004870479801002001491820ABBEFEE763
:10051000260002007047FEE7704710B590F82110E2
:100520000022022905D00421816380F820200120C7
:1005300010BD01680B6823F00E030B6001680B68A7
:1005400023F001030B6090F84030C46B012101FAE5
:1005500003F3636080F8211080F82020104610BD5E
:1005600010B590F821100024022903D004218163E2
:1005700001243DE001680A6822F00E020A60016869
:100580000A6822F001020A601A4A0168914201D108
:10059000012121E0174A1432914201D110211BE0C0
:1005A000144A2832914201D1891515E0114A3C3292
:1005B000914201D189140FE00E4A5032914202D18A
:1005C0004FF4803108E00B4A6432914202D14FF47B
:1005D000801101E04FF08071064A083A5160012114
:1005E00080F82110002180F82010416B01B188476C
:1005F000204610BD0800024070B5044600F010F916
:100600000546601C02D004480078044400F008F954
:10061000401BA042FAD370BD280000202DE9F84FFE
:10062000DFF8B8910024A9F1040B23460F2709F144
:10063000040AABF1040EC9E00125A5402A40AA42F4
:100640007DD1674ED1F804C0ACEB0608B44532D07A
:1006500014DCBCF1030F3AD009DCBCF1000F2AD046
:10066000BCF1010F1CD0BCF1020F31D11DE0BCF177
:10067000110F17D0BCF1120F2AD119E0B8F5881F5D
:1006800019D006DCB8F5803F15D0B8F5801F1FD112
:1006900011E0B8F5001F0ED0B8F5041F18D10AE01C
:1006A000CB6815E0CB681B1D12E0CB6808330FE068
:1006B000CB680C330CE08B682BB1012B4FF0080397
:1006C00003D0456104E0042302E0056100E000235B
:1006D000FF2A01D8064601E000F104064FEA84052E
:1006E00001D9A5F12005D6F8008007FA05FC28EA13
:1006F0000C0803FA05F548EA0508C6F800804D68BD
:10070000ED0062D5374DAE6946F00106AE61AD69C8
:1007100024F0030605F001050095334D06EB050CAA
:10072000DCF80850A607360F07FA06F825EA080590
:10073000DFF8B880404503D14FF0000817E044E0EF
:10074000DFF8AC80404502D14FF001080FE0DFF840
:10075000A480404502D14FF0020808E0DFF89880FD
:10076000404502D14FF0030801E04FF0040808FAB9
:1007700006F848EA0508CCF808804D68D9F800600A
:10078000ED024D4601D5164300E096432E604D68BC
:10079000DAF80060AD02554601D5164300E09643F5
:1007A0002E604D68DBF80060AD035D4601D5164351
:1007B00000E096432E604D68DEF80060ED0375465C
:1007C00001D5164300E096432E60641C0D682A464E
:1007D000E5407FF431AFBDE8F88F00000804014028
:1007E000000011100010024000000140000801400C
:1007F000000C0140001001400014014080680840D6
:1008000000D001207047C26821EA02030A4043EA8F
:100810000241016170470AB1016170470904FBE7B9
:100820000148806870470000280000200248816865
:10083000027811448160704728000020074810B5F5
:10084000016841F010010160032000F075F80F20ED
:1008500000F006F800F024F8002010BD002002404F
:1008600070B50D4D04464FF47A712878B1FBF0F065
:100870000A490968B1FBF0F000F0DCFA48B9102C25
:1008800007D200222146501E00F036F800206C608E
:1008900070BD012070BD0000280000203400002041
:1008A0000C4808B5816941F001018161816901F05D
:1008B00001010091C16941F08051C161C06900F03E
:1008C000805000900448416821F0E06141F00071DF
:1008D000416008BD0010024000000140002809DB13
:1008E00000F01F02012191404009800000F1E0204A
:1008F000C0F8001170470000F0B40E4B1B680C46A6
:10090000C3F30223C3F10705042D00D90425191DE3
:10091000072901D2002300E0DB1E012606FA05F1BB
:10092000491E214099409E40761E16403143F0BC3E
:1009300001F02DBB0CED00E0064900F0070208684D
:100940004FF6FF03184040EA0220034A10430860B4
:10095000704700000CED00E00000FA052DE9F047BB
:100960000F46050061D0434E306800F00700B842E2
:1009700009D2306820F0070038433060306800F05A
:100980000700B84251D128683B4C810712D5400777
:1009900003D5606840F4E06060602878000703D504
:1009A000606840F4605060606068A96820F0F00002
:1009B000084360602878C00728D06868012810D0F4
:1009C0002168022810D0890700292EDA616821F0F9
:1009D000030101436160FFF723FF804641F288393C
:1009E0000DE021688903EFE78901EDE7FFF718FFC4
:1009F000A0EB0801494502D90320BDE8F0876068F3
:100A0000696800F00C00B0EB810FEFD1306800F0A6
:100A10000700B8420BD9306820F007003843306037
:100A2000306800F00700B84201D00120E5E72878DF
:100A3000400705D56068E96820F4E060084360601D
:100A40002878000706D56068296920F4605040EADC
:100A5000C100606000F038F86168084AC1F3031112
:100A6000515CC8400649086006480068FFF7F8FE78
:100A70000020C2E700200240001002403E2700088C
:100A8000340000202C000020044805490068496813
:100A9000044AC1F30221515CC84070473400002071
:100AA000001002404E2700080448054900684968C4
:100AB000044AC1F3C221515CC84070473400002091
:100AC000001002404E2700080E4A51680E4801F0FF
:100AD0000C03042B11D0082B0FD10C48C1F3834316
:100AE000C903C05C0AD55168084AC1F34041921E4F
:100AF000515C054A5043B0FBF1F07047044948434C
:100B0000704700000010024000127A002E270008F3
:100B100000093D002DE9F84F040070D02078C04D49
:100B2000C00749D06868C0F38100012807D0686811
:100B3000C0F38100022809D16868C00306D528687F
:100B4000800339D560680028E7D035E06068B0F5EB
:100B5000803F0BD010B1B0F5A02F11D0286820F441
:100B600080302860286820F4802002E0286840F463
:100B700080302860606890B1FFF752FE06460AE0B8
:100B8000286840F480202860F0E700BFFFF748FEA7
:100B9000801B642873D828688003F7D50CE0FFF722
:100BA0003FFE064605E000BFFFF73AFE801B6428C3
:100BB000F0D828688003F7D420789A4E80074FF049
:100BC00001094FF0000839D5686810F00C0F07D004
:100BD0006868C0F38100022809D16868C00306D4A0
:100BE0002868800714D52069012808D110E0206901
:100BF000B0B1C6F80090FFF713FE074605E00AE122
:100C0000FFF70EFEC01B0228C4D828688007F7D55E
:100C10002868616920F0F80040EAC10028600DE012
:100C2000C6F80080FFF7FCFD074604E0FFF7F8FD7B
:100C3000C01B022823D828688007F7D42078000733
:100C40002CD57948A169D9B1C0F80090FFF7E8FD2B
:100C5000074604E0FFF7E4FDC01B02280FD8686ACE
:100C60008007F7D571484FF4FA510068B0FBF1F0F6
:100C7000009000BF0098411E0091FAD20EE080E083
:100C8000C0F80080FFF7CCFD074604E0FFF7C8FD81
:100C9000C01B022875D8686A8007F7D420784007FF
:100CA00060D5E8690027C00008D4E86940F08050AA
:100CB000E861E869012700F0805000905C48016815
:100CC000C90513D40168834641F480710160FFF7C0
:100CD000A7FD824606E000BFFFF7A2FDA0EB0A00D9
:100CE00064284ED8DBF80000C005F5D5E06801287F
:100CF0000AD008B1052813D0286A20F00100286224
:100D0000286A20F0040002E0286A40F0010028620E
:100D1000E06841F2883B98B1FFF782FD82460BE024
:100D2000286A40F004002862EEE700BFFFF778FD74
:100D3000A0EB0A0159455AD8286A8007F6D50CE07D
:100D4000FFF76EFD824605E0FFF76AFDA0EB0A01A2
:100D500059454CD8286A8007F6D41FB1E86920F0BD
:100D60008050E861E06988B36968C1F381010229B4
:100D700044D00228C6F8608004D0FFF751FD044635
:100D800038E034E0FFF74CFD074604E0FFF748FD8C
:100D9000C01B02282BD828688001F7D4206AB0F540
:100DA000803F05D16868A16820F40030084368607E
:100DB000D4E908010843696821F4741108436860A4
:100DC000C6F86090FFF72CFD044606E025E000BF62
:100DD000FFF726FD001B022809D828688001F7D5F7
:100DE0001BE000BFFFF71CFD001B022802D90320F7
:100DF000BDE8F88F28688001F4D40EE00128F7D010
:100E00006868226A00F48031914204D1616A00F47A
:100E10007010884201D00120EAE70020E8E70000D6
:100E20000010024000004242800442423400002090
:100E30000070004010B5401EB0F1807F01D301204A
:100E400010BD4FF0E02460610F21601701F09FF8A2
:100E50000020A06107202061002010BD704770476E
:100E600070B590F83C20012A26D0012480F83C403F
:100E7000022280F83D2003685A689D6822F07006BF
:100E80000A6832435A600D4B02689A4208D0B2F1A8
:100E9000804F05D00A4B9A4202D00A4B9A4204D1A5
:100EA000496825F080031943916080F83D40002196
:100EB00080F83C10084670BD022070BD002C014037
:100EC000000400400008004010B5040003D094F86E
:100ED0003D0010B107E0012010BD002084F83C0067
:100EE000204600F01FF8022084F83D00211D2068F4
:100EF00000F0D2FE012084F8460084F83E0084F819
:100F00003F0084F8400084F8410084F8420084F8EF
:100F1000430084F8440084F8450084F83D00002034
:100F200010BD000008B5154A0168154891420ED160
:100F3000816941F4006181618069002200F40060F0
:100F4000009011461920FFF7D7FC192010E0B1F1ED
:100F5000804F11D1C16941F00101C161C069002216
:100F600000F00100009011461C20FFF7C5FC1C207A
:100F7000BDE80840FFF7B2BC08BD0000002C0140EE
:100F80000010024090F83D10012901D00120704767
:100F9000022180F83D100168CA6842F00102CA606F
:100FA00000680B49884208D0B0F1804F05D009494C
:100FB000884202D00849884204D1816801F00701C3
:100FC000062903D0016841F001010160002070474B
:100FD000002C0140000400400008004070B50446A9
:100FE00090F83C000025012817D0012684F83C60C9
:100FF000022084F83D002068826822F0770222F403
:101000007F4282600868502838D00DDC20284FD0FD
:1010100005DC90B3102811D14AE0022070BD3028C1
:1010200046D040280AD13BE060282FD070280DD050
:10103000B0F5805F03D0B0F5005F12D0012584F8D1
:101040003D60002084F83C00284670BDCB68D1E9A3
:101050000121206800F056FE2068816841F0770188
:1010600009E0CB68D1E90121206800F04BFE20683F
:10107000816841F480418160E1E719E0CA6849680C
:10108000206800F051FE5021206806E0CA684968D7
:10109000206800F05AFE6021206800F03DFECEE797
:1010A000CA684968206800F03FFE40212068F4E7E4
:1010B000226801461046F0E7704770B504460068A4
:1010C00001694FF00005C943890715D4C168C943B8
:1010D000890711D4E91E0161012020772068806909
:1010E0008007204602D0FFF7E7FF04E000F098F801
:1010F000204600F096F8257720680169C943490722
:1011000017D4C168C943490713D46FF004010161C2
:10111000022020772068806910F4407F204602D0AA
:10112000FFF7CAFF04E000F07BF8204600F079F8F2
:10113000257720680169C943090716D4C168C943E6
:10114000090712D46FF0080101610420207720689C
:10115000C0698007204602D0FFF7AEFF04E000F030
:101160005FF8204600F05DF8257720680169C943E3
:10117000C90617D4C168C943C90613D46FF010015A
:101180000161082020772068C06910F4407F204664
:1011900002D0FFF791FF04E000F042F8204600F093
:1011A00040F8257720680169C943C90708D1C1689B
:1011B000C943C90704D1891E0161204600F032F8F5
:1011C00020680169C943090609D4C168C9430906F1
:1011D00005D46FF0800101612046FFF73FFE2068D3
:1011E0000169C943490609D4C168C943490605D400
:1011F0006FF040010161204600F028F82068016985
:10120000C94389060BD4C168C943890607D46FF066
:10121000200101612046BDE87040FFF720BE70BD8F
:1012200070477047074900680968884209D1064835
:10123000C189491CC181418A491C4182018A491CDA
:1012400001827047B80000200800002070477047F6
:1012500070470000F8B5016804460868CA684B6921
:1012600010F00F0F4FF0000559D003F0010602F403
:101270009077374365D0C10705D0D10503D5616CA0
:1012800041F001016164410705D5D90703D0616CC4
:1012900041F002016164810705D5D90703D0616C73
:1012A00041F004016164010707D502F020013143D8
:1012B00003D0616C41F008016164616C00293AD08F
:1012C000800604D5900602D5204600F07FFD2068F8
:1012D0004069616CC0F38010090700D460B32046F8
:1012E00000F04DFD20684069400621D5206814308B
:1012F00050E8001F21F0400140E80012002AF5D11B
:10130000E06BA8B16D494163E06BFFF729F9002854
:1013100011D0E06B416B01B0BDE8F0400847830697
:101320000FD593060DD52046BDE8F84000F04EBD20
:101330002046FFF78DFFF8BD2046FFF789FF656463
:10134000F8BD266B2023012E7CD1C6067AD5D606A1
:1013500078D508684868009048694FF00206400652
:1013600040D5E16B086840680004000CE8D0A28D0D
:101370008242E5D9E085886920282DD020680C308C
:1013800050E8001F21F4807140E80012002AF5D1D6
:101390002068143050E8001F21F0010140E80012DD
:1013A000002AF5D12068143050E8001F21F04001D8
:1013B00040E80012002AF5D184F842302563206805
:1013C0000C3050E8001F21F0100140E80012002A04
:1013D000F5D1E06BFFF7A1F86663A08DE18D401AAF
:1013E00081B22AE0A08DE18D401A81B2E08D002803
:1013F000A6D00029A4D022680C3252E8000F20F4B5
:10140000907042E80007002FF5D12068143050E8B2
:10141000002F22F0010240E80027002FF5D184F8C8
:101420004230256320680C3050E8002F22F0100273
:1014300040E80023002BF5D166632046FFF707FF45
:10144000F8BDFFE705062BD5150629D594F8410010
:101450002128F5D1A068B0F5805F01D12069B0B135
:10146000206A411C2162216800784860E08C401E9F
:101470000004000CE084E3D12068C16821F0800101
:10148000C1602068C16841F04001C160D8E7206AAE
:101490000088C0F308004860206A801C2062E5E7ED
:1014A0004006CDD55006CBD5CA68204622F0400272
:1014B000CA6084F8413000F09BF8C1E76F1D000856
:1014C00070B5040004D094F84100002510B106E086
:1014D000012070BD84F84050204600F023F82420FD
:1014E00084F841002068C16821F40051C1602046A1
:1014F00000F0CEFC2068016921F490410161206870
:10150000416921F02A0141612068C16841F400511C
:10151000C1606564202084F8410084F8420065635E
:10152000002070BD30B585B0002400940194029471
:1015300003940068184988422CD11848816941F405
:1015400080418161816901F480410491816941F0A8
:10155000040181618069124D00F0040004904FF491
:1015600000700090022001900320039069462846F5
:10157000FFF754F82815CDE900046946284602947F
:10158000FFF74CF8002211462520FFF7B5F925207A
:10159000FFF7A4F905B030BD00380140001002404B
:1015A0000008014090F84230202B01D00220704703
:1015B00021B11AB10023036300F0C6BC01207047BB
:1015C00010B50068074988420AD1074800F026F99B
:1015D00005490122BDE8104023310448FFF7E2BF6E
:1015E00010BD00000038014038000020000100203C
:1015F0007047FEE72DE9F04F85B000243A4800948B
:10160000019402940394816941F010018161816920
:1016100001F010010491816941F02001816181692B
:1016200001F020010491816941F004018161816927
:1016300001F004010491816941F008018161806930
:10164000DFF8A89000F008004FF400550490002245
:1016500029464846FFF7DFF8DFF894A040F60F1759
:10166000002239465046FFF7D6F8DFF888B04BF233
:101670002008002241465846FFF7CDF80095022683
:1016800001250396CDE9015469464846FEF7C6FF99
:1016900000970396CDE9015469465046FEF7BEFF18
:1016A000F0208DE8310069465046FEF7B7FF44F65A
:1016B0000F408DE8310069465846FEF7AFFFCDF880
:1016C00000800396CDE9015469465846FEF7A6FF0F
:1016D0001020CDE90004694658460294FEF79EFFAB
:1016E00005B0BDE8F08F000000100240001001407E
:1016F00000080140000C014010B586B000241748D6
:101700000094019402940394049413490594016095
:101710004721C0E901144FF6FF71C0E90314446189
:101720008461FFF7D1FB08B172B6FEE74FF4805039
:10173000009069460948FFF751FC08B172B6FEE710
:10174000049404A905480594FFF78AFB002801D0FA
:1017500072B6FEE706B010BD002C014070000020FC
:1017600010B586B0002416480094019402940394A6
:1017700004944FF08041059401604721C0E90114B1
:1017800040F2E731C0E903148461FFF79DFB08B123
:1017900072B6FEE74FF48050009069460848FFF7A4
:1017A0001DFC08B172B6FEE7049404A90448059430
:1017B000FFF756FB002801D072B6FEE706B010BD59
:1017C000B8000020FEE7FEE77047416309686FF04C
:1017D00040030B60002180F8201080F8231080F86F
:1017E000241080F8221080F82710C16280F82110A0
:1017F000816280F83010FF2380F82530FC2380F8C8
:10180000263040F8081B40F8041C016041608160EC
:10181000C1600161416142857047000010B590F8D8
:101820002210012391B101290FD190F8242090F8C2
:101830002310815490F8242000210F2A12D0521C2A
:10184000D2B280F824200F2A21D810BD90F823109E
:1018500090F825209142F8D1017080F8223080F86C
:10186000243010BDC27B90F82640A2420FD10D4A11
:1018700084781288B4EB122F09D1C478D2B2944282
:1018800005D180F82030C16A491CC16210BD80F8C2
:10189000241080F82010016041608160C16080F8F0
:1018A000221010BD1E0000202DE9F047274F0446EE
:1018B0000A2638780D466FF0400901280BD0002821
:1018C00041D100BF94F8210001283CD1616B096827
:1018D000C1F800902DE02868400634D594F8300017
:1018E0004FF00008401CC0B284F83000102815D119
:1018F00084F82180A16A0320491CA16284F8308009
:10190000FEF77AFE00224FF400611148FEF783FFD4
:10191000012204F123010F48FFF744FE616B0968BF
:10192000C1F8009087F80080CCE7761E16F0FF061D
:1019300002D028680006F8D594F830001034005D15
:10194000686001203870BDE8F087000007000020C3
:10195000000801400001002070B518488078012877
:1019600007D0012000F0D6F8BDE870400220FEF755
:1019700043BE002401E0202C05D244F0800000F09A
:10198000C9F8802007E0A4F12000C0B240F0800038
:1019900000F0C0F8882000F0BDF80025002000F01D
:1019A000D9F8002000F0D6F86D1CEDB2082DF5D363
:1019B000641CE4B2402CDED370BD000000000020A7
:1019C0002DE9F0410646002401E0202C18D2002524
:1019D00044F08008404600F09DF845F0800000F09B
:1019E00099F8680000EB0417F05D00F0B3F8B8193F
:1019F000407800F0AFF86D1CEDB2082DEAD31BE083
:101A0000A4F12000002540F0800800BF08F0FF008E
:101A100000F080F845F0880000F07CF8680000EBEA
:101A20000417F05D00F096F8B819407800F092F8CD
:101A30006D1CEDB2082DE9D3641CE4B2402CC4D374
:101A4000BDE8F08110B5114C01280AD0002807D15B
:101A5000302000F05FF80120FEF7CEFD0020A070DE
:101A600010BD302000F056F80120FEF7C5FD3420EF
:101A700000F050F80120FEF7BFFD362000F04AF8D4
:101A80000120FEF7B9FD0120E9E700000000002079
:101A900070B51F4D4FF48074002221462846FEF792
:101AA000BAFE0A20FEF7A8FD012221462846FEF7CD
:101AB000B2FE3220FEF7A0FD302000F02BF86E20A1
:101AC00000F076FA302000F025F8282000F070FAB7
:101AD000082000F01FF86E2000F06AFA012000F0E4
:101AE00019F80C20FEF788FD062000F013F80120FD
:101AF000FEF782FD0C2000F00DF80120FEF77CFDC2
:101B0000022000F007F8BDE870400120FEF774BD28
:101B10000008014070B501220D4E04461503294608
:101B20003046FEF778FEF82000F054F804F0F0009C
:101B300000F050F82007000E00F04CF8322000F0C2
:101B400037FA29463046BDE870400022FEF763BEF2
:101B5000000C014070B501220D4E044615032946C4
:101B60003046FEF758FEFA2000F034F804F0F0009A
:101B700000F030F82007000E00F02CF8322000F0C2
:101B800017FA29463046BDE870400022FEF743BEF2
:101B9000000C014010B5144641F0800370B10128DB
:101BA00004D0022805D0032808D105E041F09003B5
:101BB00004E041F0880301E041F09803D8B2FFF758
:101BC000A9FF02E0641CFFF7C5FF20780028F9D1C7
:101BD00010BD70472DE9F0410F4F002405464FF42A
:101BE00000487E1405FA04F0000601D5012200E049
:101BF000002241463846FEF70EFE002231463846A6
:101C0000FEF709FE012231463846FEF704FE641C49
:101C1000082CE7DBBDE8F081000C0140FEF706BEB2
:101C200030B58FB028216846FEF784FB14210AA83E
:101C3000FEF780FB01210804CDE900100024029486
:101C400002250491CDE907504FF4E0100990684651
:101C5000FEF760FF08B172B6FEE70F20CDE90A0576
:101C60004FF48060CDE90C4002210AA80E94FEF7E3
:101C700075FE002801D072B6FEE70FB030BD704788
:101C80000148FFF71ABA0000700000200148FFF772
:101C900014BA0000B8000020F0B50268164B174CCB
:101CA000174D4FF08047984205D0B84203D0A0426C
:101CB00001D0A84203D122F070064A68324398420C
:101CC00005D0B84203D0A04201D0A84203D122F4EB
:101CD0004074CA6822434C6922F0800222430260A9
:101CE0008A68C2620A688262984201D10969016306
:101CF00001214161F0BD0000002C014000040040C2
:101D00000008004010B5846842EA032224F47F44AE
:101D10000A432243826010BD826822F070020A43A7
:101D200042F007018160704710B5036A046A24F02D
:101D300001040462846924F0F00444EA021423F0EC
:101D40000A020A438461026210BD10B5036A046A84
:101D500024F010040462846923F0A00324F4704486
:101D600044EA023243EA01118261016210BD10B5FA
:101D7000406A0021C185C184FFF76AFA10BD01687D
:101D80000C3151E8002F22F4907241E80023002B1F
:101D9000F5D10168143151E8002F22F0010241E829
:101DA0000023002BF5D1016B012909D101680C3109
:101DB00051E8002F22F0100241E80023002BF5D15A
:101DC000202180F8421000210163704708B590F887
:101DD0004210222901D0022008BD82684FF48053AE
:101DE0009A4201D1016921B1816A9A421BD04AB15C
:101DF0000AE00268816A5268C2F308020A80816AB6
:101E0000891C08E0026972B10268526802F07F0220
:101E10000A70816A491C8162C18D491E0904090C3E
:101E2000C18503D01BE002685268F1E70168CA6807
:101E300022F02002CA600168CA6822F48072CA6077
:101E400001684A6922F001024A61202180F84210AB
:101E500000214163026B012A03D0FFF7B1FB002090
:101E600008BD016301680C3151E8002F22F0100217
:101E700041E80023002BF5D101680A68D20602D59B
:101E80000A6849680091818DFFF7E1F9E7E70000F2
:101E900070B5044600680169E26821F440511143BD
:101EA00001612169A0680843616908432168CA6823
:101EB00041F20C639A430243CA6020684169A269F7
:101EC00021F44071114341611E492068884202D1CA
:101ED000FEF7EAFD01E0FEF7D7FD00EBC00101EBE4
:101EE0000012606864218000B2FBF0F3B3FBF1F3F1
:101EF0006FF018067343B2FBF0F5B2FBF0F605EB9A
:101F00008305322303EB0515B5FBF1F5B6FBF1F6BE
:101F100005F0F00505EB0615B2FBF0F6B2FBF0F0AC
:101F2000B0FBF1F06FF01802504306EB800003EBBA
:101F30000010B0FBF1F0216800F00F002844886029
:101F400070BD00000038014081628285C285002199
:101F50004164222180F84210016921B10168CA68F8
:101F600042F48072CA6001684A6942F001024A6123
:101F70000068C16841F02001C16000207047000086
:101F80000148FFF767B9000000010020FEE70907DC
:101F9000090E002804DB00F1E02080F800147047EF
:101FA00000F00F0000F1E02080F8141D70470000E1
:101FB000044900220B685A6209684A6A8242FCD3CB
:101FC0007047000070000020FEF738FCFFF728FE85
:101FD000FFF710FBFFF790FBC248C14900250160E5
:101FE0004FF4E131C0E901150C21C560C0E904518D
:101FF0008561C561FFF764FA08B172B6FEE7FFF7C5
:10200000AFFB0122B749B848FFF7DFFBB54890386E
:10201000FEF7B8FFB3484838FEF7B4FFB1481038B0
:1020200040F8585F45608560C56005614561856120
:10203000C561056245628562C562AA4870308560E7
:10204000C56005614561FFF723FD0120FFF7FAFC3C
:10205000A648FFF7B5FC4FF4FA60FEF7CDFA002072
:10206000FFF7F0FCFFF778FCA14E4FF4006400226C
:1020700021463046FEF7CFFB9B4901222331994888
:10208000FFF790FAA146DFF85CA2DFF85CB2994C4A
:102090004FF001080AF1880A10213046FEF7AEFB26
:1020A000E07020213046FEF7A9FB20714021304628
:1020B000FEF7A4FB607180213046FEF79FFB8E4F38
:1020C000A07101213846FEF799FBE07102213846E4
:1020D000FEF794FB207204213846FEF78FFB6072F6
:1020E00039153846FEF78AFBA07249463846FEF796
:1020F00085FBE0724FF480413846FEF77FFB20738A
:10210000E178227941EA4201627941EA8201A279C9
:1021100041EAC201E27941EA0211227A41EA42111E
:10212000627A41EA8211A27A41EAC211E27A41EA74
:10213000022141EA4020E08210213846FEF75EFB92
:102140002070012807D0A570FEF76AFBA061A07877
:10215000012802D00CE084F80280FEF761FBFEF754
:102160005FFBA169401AA18A884201D384F80180EB
:10217000A07818B16078012821D000E065705FA0D8
:10218000E061002220213846FEF745FB00220821AD
:102190003046FEF740FB002204213046FEF73BFBB1
:1021A000002202213046FEF736FB9BF820005F46F6
:1021B00001281CD097F82100012844D049E052A002
:1021C000E061012220213846FEF725FB0821304638
:1021D000FEF719FB04213046FEF715FB02213046BD
:1021E000FEF711FB4FF4FA70FEF706FADDE7032065
:1021F000FEF702FA012249463046FEF70CFB87F84B
:102200002050002051463A5C0A54401C1028FADB4A
:10221000FF203874FE207874E08A010AB974F874DB
:102220003D7560787875BD75FD753D767D76BD76BA
:10223000FD763D777D77FD20B877FC20F87787F82D
:10224000218087F822504FF4FA6225492648FFF78B
:102250002BFB208AB0F57A7F36D325820020FFF74A
:10226000F1FBFFF779FB1F48E28A28A14830FDF710
:10227000B3FF1C489AF8052026A15830FDF7ACFFA3
:10228000184828A16830E269FDF7A6FF154820A18B
:102290007830FA6AFDF7A0FF124A0021483208465A
:1022A000FFF778FC0F4A002158320120FFF772FC3B
:1022B0000C4A002168320220FFF76CFC094A002119
:1022C00078320320FFF766FCE0896428FFF4E4AE6F
:1022D000E5814FF400511448FEF795FADCE6000062
:1022E0000038014000010020380000202C230008A5
:1022F0000008014008000020000C0140636875617F
:1023000020646179000000006461790049443A204A
:1023100025750000536F206C756F6E673A20257528
:10232000000000002573000000100140FFFFFFFFC8
:10233000FFFFFFFFFFFFFFFFFFFFFFFFFFFFFFFFAD
:10234000FFFFFFFFFFFFFFFFFFFFFFFFFFFFFFFF9D
:10235000FFFFFFFFFFFFFFFFFFFFFFFFFFFFFFFF8D
:10236000FFFFFFFFFFFFFFFFFFFFFFFFFFFFFFFF7D
:10237000FFFFFFFFFFFFFFFFFFFFFFFFFFFFFFFF6D
:10238000FFFFFFFFFFFFFFFFFFFFFFFFFFFFFFC399
:10239000FFFFFFFFFFFFFFFFFFFFFFFFFFFFFFC389
:1023A000FFFFFFE3FFC7FFFFFFF87FFFFFFFFFC354
:1023B000FFFFFFE1FF87FFFFFFF87FFFFFFFFFDF6A
:1023C000FFFFFFE1FF87FFFFFFF87FFFFFFFFFFF3A
:1023D000FFFFFFE1FF87FFFFFFF87FFFFFFFFFFF2A
:1023E000FFFFFFC1FF83FFFFFFF87FFFE1FFF0C3A7
:1023F000FC003F0000000FC003F87FFFE1FFF0C3C7
:10240000F0000F0000001F0000F87FFFF0FFE1C3A5
:10241000E07C07C1FF83FE07C0787FFFF0FFE1C3C8
:10242000C1FF07E1FF87FC1FF0787FFFF0FFC3C308
:10243000C3FF87E1FF87FC3FF8787FFFF87FC3C3C6
:10244000C3FF83E1FF87FC3FF8387FFFF87F87C336
:10245000C3FF83E1FF87FC3FF8387FFFFC3F87C362
:10246000C3FF83E1FF87FC3FF8387FFFFC3F8FC34A
:10247000C20003E1FF87F82000787FFFFE3F0FC313
:10248000C00007E1FF87FC0000787FFFFE1F0FC33D
:10249000C3FFFFE1FF87FC3FFFF87FFFFF1E1FC365
:1024A000C3FFFFE1FF87FC3FFFF87FFFFF0E1FC365
:1024B000C3FFFFE1FF87FC3FFFF87FFFFF0E3FC335
:1024C000C3FFFFE1FF83FC3FFFF87FFFFF843FC3B3
:1024D000C3FFFFE1FFC3FC3FFFF83FFFFF807FC367
:1024E000C1FFFFE0FFC1FC1FFFFC1FFFFFC07FC358
:1024F000E00007F007C00E00007C01FFFFC0FFC333
:10250000F00007F807E00F00007E01FFFFE0FFC3C7
:10251000FC0007FE0FF81FC0007F81FFFFFFFFFFD9
:10252000FFFFFFFFFFFFFFFFFFFFFFFFFFFFFFFFBB
:10253000FFFFFFFFFFFFFFFFFFFFFFFFFFFFFFFFAB
:10254000FFFFFFFFFFFFFFFFFFFFFFFFFFFFFFFF9B
:10255000FFFFFFFFFFFFFFFFFFFFFFFFFFFFFFFF8B
:10256000FFFFFFFFFFFFFFFFFFFFFFFFFFFFFFFF7B
:10257000FFFFFFFFFFFFFFFFFFFFFFFFFFFFFFFF6B
:10258000FFFFFFFFFFFFFFFFFFFFFFFFFFFFFFFF5B
:10259000FFFFFFFFFFFFFFFFFFFFFFFFFFFFFFFF4B
:1025A000FFFFFFFFFFFFFFFFFFFFFFFFFFFFFFFF3B
:1025B000FFFFFFFFFFFFFFFFFFFFFFFFFFFFFFFF2B
:1025C000FFFFFFFFFFFFFFFFFFFFFFFFFFFFFFFF1B
:1025D000FFFFFFFFFFFFFFFFFFFFFFFFFFFFFFFF0B
:1025E000FFFFFFFFFFFFFFFFFFFFF7FFFFFFFFFF03
:1025F000FFFFFFFFFFFFFFFFFFFFF7FFFFFFFFFFF3
:10260000FFFFFFFFFFFFFFFFFFFFF7FFFFFFFFFFE2
:10261000FFFFFFFFFFFFFE07C1E060FFFFFFFFFFBF
:10262000FFFFFFFFFFFFFC631CCFE3FFFFFFFFFF88
:10263000FFFFFFFFFFFFFCFB3E4FF7FFFFFFFFFF2A
:10264000FFFFFFFFFFFFFCF97E4FF7FFFFFFFFFFDC
:10265000FFFFFFFFFFFFFCF97E60F7FFFFFFFFFFBB
:10266000FFFFFFFFFFFFFCF97E7C37FFFFFFFFFF4F
:10267000FFFFFFFFFFFFFCFB7E7F37FFFFFFFFFF3A
:10268000FFFFFFFFFFFFFCF33C7F33FFFFFFFFFF78
:10269000FFFFFFFFFFFFFC0780C030FFFFFFFFFFD2
:1026A000FFFFFFFFFFFFFCFFFFFFFFFFFFFFFFFF3D
:1026B000FFFFFFFFFFFFFCFFFFFFFFFFFFFFFFFF2D
:1026C000FFFFFFFFFFFFFCFFFFFFFFFFFFFFFFFF1D
:1026D000FFFFFFFFFFFFFFFFFFFFFFFFFFFFFFFF0A
:1026E000FFFFFFFFFFFFFFFFFFFFFFFFFFFFFFFFFA
:1026F000FFFFFFFFFFFFFFFFFFFFFFFFFFFFFFFFEA
:10270000FFFFFFFFFFFFFFFFFFFFFFFFFFFFFFFFD9
:10271000FFFFFFFFFFFFFFFFFFFFFFFFFFFFFFFFC9
:10272000FFFFFFFFFFFFFFFFFFFFFFFF01020203AD
:102730000405060708090A0B0C0D0E0F1010000007
:102740000000000000000102030406070809000061
:1027500000000102030400007827000800000020A8
:102760003800000028010008B027000838000020C9
:10277000C007000044010008408000000000000085
:102780000000000000000000000000000000000049
:1027900000000000D0070000000000000000000062
:1027A0000100000010000000000000000024F40000
:04000005080000ED02
:00000001FF
