:020000040800F2
:10000000F8080020C9010008231800084F1600084E
:100010002118000859050008CD2000080000000044
:10002000000000000000000000000000131D000898
:100030005B05000800000000251800085D1D000891
:10004000E3010008E3010008E3010008E301000800
:10005000E3010008E3010008E3010008E3010008F0
:10006000E3010008E3010008E3010008E3010008E0
:10007000E3010008E3010008E3010008E3010008D0
:10008000E3010008E3010008E3010008E3010008C0
:10009000E3010008E3010008E3010008E3010008B0
:1000A000E3010008C11D0008E3010008E3010008A6
:1000B000CD1D0008E3010008E3010008E30100088A
:1000C000E3010008E3010008E3010008E301000880
:1000D000E3010008C1200008E3010008E301000873
:1000E000E3010008E3010008E301000800F002F862
:1000F00000F041F80AA090E8000C82448344AAF181
:100100000107DA4501D100F036F8AFF2090EBAE87E
:100110000F0013F0010F18BFFB1A43F0010318473B
:1001200080290000A0290000103A24BF78C878C1B7
:10013000FAD8520724BF30C830C144BF04680C60ED
:10014000704700000023002400250026103A28BF35
:1001500078C1FBD8520728BF30C148BF0B60704739
:10016000642900F09980002070471FB500F0E5F881
:100170001FBD10B510BD00F0B4F91146FFF7F5FF33
:1001800001F0C2FF00F0D2F903B4FFF7F2FF03BCA5
:1001900000F0DCF90B49D1F800C04A685CF8043B78
:1001A0001068184442F8040B8C4528BFA1F1DC0C00
:1001B0008A4228BFA1F1DC02C1F800C04A6020F0E9
:1001C00000407047900200200948804709480047D6
:1001D000FEE7FEE7FEE7FEE7FEE7FEE7FEE7FEE7F7
:1001E000FEE7FEE704480549054A064B7047000054
:1001F000BF1D0008ED000008F8020020F8080020EC
:10020000F8040020F80400200FB41CB5074B06AA20
:100210007B4469460090059800F029F90020694662
:1002200000F038F91CBC5DF814FB000081020000EE
:100230002DE9F0410E460446002020622046E16888
:10024000884730B3252805D0D4E901219047206A9A
:10025000401CF2E7E168204600278847050018D0D7
:10026000A5F14100192802D820354FF40067324625
:10027000294620462760FFF773FF40B1012804D0CC
:10028000F61D26F007060836D8E7361DD6E72846BD
:10029000DAE7206ABDE8F0812DE9F0410646002446
:1002A00010687529314616A510D0AFF300800028DC
:1002B00002DA404213A507E031688A0701D512A58A
:1002C00002E0490704D511A5012401E0AFF3008045
:1002D00000210A2206F1240709E0B0FBF2FCB0FB82
:1002E000F2F302FB1C00303078541846491C0028F9
:1002F000F3D123462A463046BDE8F04100F058B815
:10030000000000002D0000002B0000002000000075
:100310000B4910B5A1F17C020A4CC2E93712372112
:1003200006E000EB104342F82130074B00FB03408E
:100330000B1EA1F10101F4DC10BD0120E8E7000073
:1003400030020020E119D666CD0D010002F0FF0356
:1003500043EA032242EA024200F0A3B84FF000024F
:1003600000B5134694469646203922BFA0E80C50AB
:10037000A0E80C50B1F12001BFF4F7AF090728BF86
:10038000A0E80C5048BF0CC05DF804EB890028BF02
:1003900040F8042B08BF704748BF20F8022B11F02B
:1003A000804F18BF00F8012B7047704770477047A7
:1003B0002DE9F0470D4699469246044600F124087F
:1003C0000168880604D5E06921F01001216000E091
:1003D0000120A84201DD471B00E00027A1697A192E
:1003E00002EB0900081AA0612078C00602D420465A
:1003F000AFF30080002608E0D4E901211AF80600D6
:100400009047206A401C761C20624E45F4DB207821
:10041000C0060AD52046AFF3008006E0D4E90121EA
:1004200030209047206A401C2062381EA7F1010747
:10043000F4DC07E0D4E9012118F805009047206AB0
:10044000401C2062281EA5F10105F3DC2046AFF315
:1004500000802078000602D50220BDE8F087012048
:10046000FBE7000001694A1C02610878704700B58B
:100470008FB0CDE901310021059105497944CDE9DD
:10048000031011466846FFF7D3FE0FB000BD000011
:10049000E5FFFFFF0A6802F8010B0A6070474FF0A2
:1004A00000020429C0F0128010F0030C3FF458AF92
:1004B000CCF1040CBCF1020F18BF00F8012BA8BF4F
:1004C00020F8022BA1EB0C01FFF74ABF5FEAC17CC9
:1004D00024BF00F8012B00F8012B48BF00F8012BC6
:1004E0007047754600F02CF8AE4605006946534645
:1004F00020F00700854618B020B5FFF773FEBDE871
:1005000020404FF000064FF000074FF000084FF07A
:10051000000B21F00701AC46ACE8C009ACE8C0090B
:10052000ACE8C009ACE8C0098D46704710B5044678
:10053000AFF300802046BDE81040FFF725BE000065
:1005400000487047980200207047000001491820B9
:10055000ABBEFEE726000200FEE7704710B590F83C
:1005600021100022022905D00421816380F8202077
:10057000012010BD01680B6823F00E030B600168B9
:100580000B6823F001030B6090F84030C46B01212D
:1005900001FA03F3636080F8211080F820201046F0
:1005A00010BD000010B590F821100024022903D0DE
:1005B0000421816301243DE001680A6822F00E02F3
:1005C0000A6001680A6822F001020A601A4A01689A
:1005D000914201D1012121E0174A1432914201D107
:1005E00010211BE0144A2832914201D1891515E0EF
:1005F000114A3C32914201D189140FE00E4A503227
:10060000914202D14FF4803108E00B4A64329142AA
:1006100002D14FF4801101E04FF08071064A083A90
:100620005160012180F82110002180F82010416BD9
:1006300001B18847204610BD0800024070B504464D
:1006400000F010F90546601C02D00448007804440C
:1006500000F008F9401BA042FAD370BD480000200A
:100660002DE9F84FDFF8B8910024A9F1040B2346D7
:100670000F2709F1040AABF1040EC9E00125A540DA
:100680002A40AA427DD1674ED1F804C0ACEB0608DF
:10069000B44532D014DCBCF1030F3AD009DCBCF114
:1006A000000F2AD0BCF1010F1CD0BCF1020F31D1D8
:1006B0001DE0BCF1110F17D0BCF1120F2AD119E0C7
:1006C000B8F5881F19D006DCB8F5803F15D0B8F50D
:1006D000801F1FD111E0B8F5001F0ED0B8F5041F20
:1006E00018D10AE0CB6815E0CB681B1D12E0CB687F
:1006F00008330FE0CB680C330CE08B682BB1012B77
:100700004FF0080303D0456104E0042302E00561D3
:1007100000E00023FF2A01D8064601E000F10406AC
:100720004FEA840501D9A5F12005D6F8008007FA23
:1007300005FC28EA0C0803FA05F548EA0508C6F89E
:1007400000804D68ED0062D5374DAE6946F0010678
:10075000AE61AD6924F0030605F001050095334D47
:1007600006EB050CDCF80850A607360F07FA06F86A
:1007700025EA0805DFF8B880404503D14FF00008AE
:1007800017E044E0DFF8AC80404502D14FF00108AB
:100790000FE0DFF8A480404502D14FF0020808E0E6
:1007A000DFF89880404502D14FF0030801E04FF098
:1007B000040808FA06F848EA0508CCF808804D68ED
:1007C000D9F80060ED024D4601D5164300E096438E
:1007D0002E604D68DAF80060AD02554601D516432B
:1007E00000E096432E604D68DBF80060AD035D4687
:1007F00001D5164300E096432E604D68DEF8006098
:10080000ED03754601D5164300E096432E60641C47
:100810000D682A46E5407FF431AFBDE8F88F00004F
:1008200008040140000011100010024000000140C7
:1008300000080140000C014000100140001401407C
:100840008068084000D001207047C26821EA020396
:100850000A4043EA0241016170470AB101617047F1
:100860000904FBE701488068704700004800002049
:100870000248816802781144816070474800002076
:10088000074810B5016841F010010160032000F035
:1008900075F80F2000F006F800F024F8002010BDD5
:1008A0000020024070B50D4D04464FF47A7128784F
:1008B000B1FBF0F00A490968B1FBF0F000F0DCFA96
:1008C00048B9102C07D200222146501E00F036F8FD
:1008D00000206C6070BD012070BD00004800002049
:1008E000540000200C4808B5816941F00101816184
:1008F000816901F001010091C16941F08051C1613C
:10090000C06900F0805000900448416821F0E06127
:1009100041F00071416008BD00100240000001403C
:10092000002809DB00F01F020121914040098000EE
:1009300000F1E020C0F8001170470000F0B40E4B49
:100940001B680C46C3F30223C3F10705042D00D92D
:100950000425191D072901D2002300E0DB1E012612
:1009600006FA05F1491E214099409E40761E164028
:100970003143F0BC01F0ABBB0CED00E0064900F0E8
:10098000070208684FF6FF03184040EA0220034AB6
:1009900010430860704700000CED00E00000FA050D
:1009A0002DE9F0470F46050061D0434E306800F056
:1009B0000700B84209D2306820F0070038433060A1
:1009C000306800F00700B84251D128683B4C8107DD
:1009D00012D5400703D5606840F4E0606060287875
:1009E000000703D5606840F4605060606068A968E3
:1009F00020F0F000084360602878C00728D06868BD
:100A0000012810D02168022810D0890700292EDA89
:100A1000616821F0030101436160FFF723FF804615
:100A200041F288390DE021688903EFE78901EDE79C
:100A3000FFF718FFA0EB0801494502D90320BDE8E4
:100A4000F0876068696800F00C00B0EB810FEFD1AF
:100A5000306800F00700B8420BD9306820F007007A
:100A600038433060306800F00700B84201D0012000
:100A7000E5E72878400705D56068E96820F4E0607C
:100A8000084360602878000706D56068296920F46B
:100A9000605040EAC100606000F038F86168084AC0
:100AA000C1F30311515CC84006490860064800685C
:100AB000FFF7F8FE0020C2E70020024000100240CD
:100AC000882A0008540000204C00002004480549F2
:100AD00000684968044AC1F30221515CC84070476C
:100AE0005400002000100240982A000804480549DC
:100AF00000684968044AC1F3C221515CC84070478C
:100B00005400002000100240982A00080E4A516844
:100B10000E4801F00C03042B11D0082B0FD10C4808
:100B2000C1F38343C903C05C0AD55168084AC1F3C5
:100B30004041921E515C054A5043B0FBF1F07047B2
:100B400004494843704700000010024000127A0038
:100B5000782A000800093D002DE9F84F040070D004
:100B60002078C04DC00749D06868C0F381000128D3
:100B700007D06868C0F38100022809D16868C00303
:100B800006D52868800339D560680028E7D035E0AD
:100B90006068B0F5803F0BD010B1B0F5A02F11D038
:100BA000286820F480302860286820F4802002E043
:100BB000286840F480302860606890B1FFF752FEEA
:100BC00006460AE0286840F480202860F0E700BF6D
:100BD000FFF748FE801B642873D828688003F7D588
:100BE0000CE0FFF73FFE064605E000BFFFF73AFEC8
:100BF000801B6428F0D828688003F7D420789A4EA8
:100C000080074FF001094FF0000839D5686810F0EF
:100C10000C0F07D06868C0F38100022809D168680A
:100C2000C00306D42868800714D52069012808D19C
:100C300010E02069B0B1C6F80090FFF713FE074638
:100C400005E00AE1FFF70EFEC01B0228C4D82868A1
:100C50008007F7D52868616920F0F80040EAC100F4
:100C600028600DE0C6F80080FFF7FCFD074604E0B1
:100C7000FFF7F8FDC01B022823D828688007F7D4A7
:100C8000207800072CD57948A169D9B1C0F8009027
:100C9000FFF7E8FD074604E0FFF7E4FDC01B02286C
:100CA0000FD8686A8007F7D571484FF4FA51006889
:100CB000B0FBF1F0009000BF0098411E0091FAD205
:100CC0000EE080E0C0F80080FFF7CCFD074604E0AE
:100CD000FFF7C8FDC01B022875D8686A8007F7D4E3
:100CE0002078400760D5E8690027C00008D4E8698B
:100CF00040F08050E861E869012700F080500090E2
:100D00005C480168C90513D40168834641F48071C9
:100D10000160FFF7A7FD824606E000BFFFF7A2FDD6
:100D2000A0EB0A0064284ED8DBF80000C005F5D51A
:100D3000E06801280AD008B1052813D0286A20F0FD
:100D400001002862286A20F0040002E0286A40F0CE
:100D500001002862E06841F2883B98B1FFF782FD0C
:100D600082460BE0286A40F004002862EEE700BFEC
:100D7000FFF778FDA0EB0A0159455AD8286A800789
:100D8000F6D50CE0FFF76EFD824605E0FFF76AFD41
:100D9000A0EB0A0159454CD8286A8007F6D41FB148
:100DA000E86920F08050E861E06988B36968C1F3C0
:100DB0008101022944D00228C6F8608004D0FFF7E0
:100DC00051FD044638E034E0FFF74CFD074604E0EF
:100DD000FFF748FDC01B02282BD828688001F7D4F4
:100DE000206AB0F5803F05D16868A16820F4003022
:100DF00008436860D4E908010843696821F4741164
:100E000008436860C6F86090FFF72CFD044606E0D2
:100E100025E000BFFFF726FD001B022809D828683F
:100E20008001F7D51BE000BFFFF71CFD001B022867
:100E300002D90320BDE8F88F28688001F4D40EE0C1
:100E40000128F7D06868226A00F48031914204D109
:100E5000616A00F47010884201D00120EAE70020A6
:100E6000E8E70000001002400000424280044242D5
:100E7000540000200070004010B5401EB0F1807F8B
:100E800001D3012010BD4FF0E02460610F216017F5
:100E900001F01DF90020A06107202061002010BD95
:100EA0007047704770B590F83C20012A26D0012485
:100EB00080F83C40022280F83D2003685A689D6813
:100EC00022F070060A6832435A600D4B02689A425B
:100ED00008D0B2F1804F05D00A4B9A4202D00A4B9B
:100EE0009A4204D1496825F080031943916080F843
:100EF0003D40002180F83C10084670BD022070BDC6
:100F0000002C0140000400400008004010B504001F
:100F100003D094F83D0010B107E0012010BD00207F
:100F200084F83C00204600F01FF8022084F83D00C1
:100F3000211D206800F050FF012084F8460084F84D
:100F40003E0084F83F0084F8400084F8410084F8B3
:100F5000420084F8430084F8440084F8450084F893
:100F60003D00002010BD000008B5154A0168154875
:100F700091420ED1816941F4006181618069002252
:100F800000F40060009011461920FFF7D7FC1920EB
:100F900010E0B1F1804F11D1C16941F00101C1618F
:100FA000C069002200F00100009011461C20FFF7EC
:100FB000C5FC1C20BDE80840FFF7B2BC08BD00001E
:100FC000002C01400010024090F83D10012901D092
:100FD00001207047022180F83D100168CA6842F084
:100FE0000102CA6000680B49884208D0B0F1804F06
:100FF00005D00949884202D00849884204D1816855
:1010000001F00701062903D0016841F001010160E8
:1010100000207047002C0140000400400008004000
:1010200070B5044690F83C000025012817D0012631
:1010300084F83C60022084F83D002068826822F039
:10104000770222F47F4282600868502838D00DDC95
:1010500020284FD005DC90B3102811D14AE002209F
:1010600070BD302846D040280AD13BE060282FD000
:1010700070280DD0B0F5805F03D0B0F5005F12D0BE
:10108000012584F83D60002084F83C00284670BDAE
:10109000CB68D1E90121206800F0D4FE2068816886
:1010A00041F0770109E0CB68D1E90121206800F027
:1010B000C9FE2068816841F480418160E1E719E060
:1010C000CA684968206800F0CFFE5021206806E019
:1010D000CA684968206800F0D8FE6021206800F0E6
:1010E000BBFECEE7CA684968206800F0BDFE40211B
:1010F0002068F4E7226801461046F0E7704770B5B3
:101100000446006801694FF00005C943890715D4FA
:10111000C168C943890711D4E91E01610120207704
:10112000206880698007204602D0FFF7E7FF04E0CF
:1011300000F098F8204600F096F8257720680169BD
:10114000C943490717D4C168C943490713D46FF08D
:1011500004010161022020772068806910F4407F3B
:10116000204602D0FFF7CAFF04E000F07BF82046DB
:1011700000F079F8257720680169C943090716D47A
:10118000C168C943090712D46FF008010161042046
:1011900020772068C0698007204602D0FFF7AEFFA5
:1011A00004E000F05FF8204600F05DF82577206845
:1011B0000169C943C90617D4C168C943C90613D414
:1011C0006FF010010161082020772068C06910F4D9
:1011D000407F204602D0FFF791FF04E000F042F884
:1011E000204600F040F8257720680169C943C90707
:1011F00008D1C168C943C90704D1891E01612046CD
:1012000000F032F820680169C943090609D4C168B1
:10121000C943090605D46FF0800101612046FFF73C
:101220003FFE20680169C943490609D4C168C94322
:10123000490605D46FF040010161204600F030F806
:1012400020680169C94389060BD4C168C94389066E
:1012500007D46FF0200101612046BDE87040FFF720
:1012600020BE70BD704770470B490068096888420E
:1012700011D10A480189491C01818189491C818158
:101280004189491C4181C18A491CC182018B491C89
:101290000183012181707047D80000200C000020DC
:1012A0007047704770470000F8B501680446086849
:1012B000CA684B6910F00F0F4FF0000559D003F0CA
:1012C000010602F49077374365D0C10705D0D105F8
:1012D00003D5616C41F001016164410705D5D9076F
:1012E00003D0616C41F002016164810705D5D90723
:1012F00003D0616C41F004016164010707D502F07D
:101300002001314303D0616C41F008016164616CDC
:1013100000293AD0800604D5900602D5204600F078
:10132000F5FD20684069616CC0F38010090700D4A6
:1013300060B3204600F0C3FD20684069400621D517
:101340002068143050E8001F21F0400140E80012EE
:10135000002AF5D1E06BA8B16D494163E06BFFF75E
:1013600021F9002811D0E06B416B01B0BDE8F040DD
:10137000084783060FD593060DD52046BDE8F840F3
:1013800000F0C4BD2046FFF78DFFF8BD2046FFF7F3
:1013900089FF6564F8BD266B2023012E7CD1C6062B
:1013A0007AD5D60678D508684868009048694FF025
:1013B0000206400640D5E16B086840680004000C56
:1013C000E8D0A28D8242E5D9E085886920282DD019
:1013D00020680C3050E8001F21F4807140E80012B2
:1013E000002AF5D12068143050E8001F21F00101D7
:1013F00040E80012002AF5D12068143050E8001FA0
:1014000021F0400140E80012002AF5D184F8423072
:10141000256320680C3050E8001F21F0100140E8DF
:101420000012002AF5D1E06BFFF798F86663A08DF3
:10143000E18D401A81B22AE0A08DE18D401A81B27F
:10144000E08D0028A6D00029A4D022680C3252E8F2
:10145000000F20F4907042E80007002FF5D12068BB
:10146000143050E8002F22F0010240E80027002F3E
:10147000F5D184F84230256320680C3050E8002F05
:1014800022F0100240E80023002BF5D166632046CD
:10149000FFF707FFF8BDFFE705062BD5150629D591
:1014A00094F841002128F5D1A068B0F5805F01D102
:1014B0002069B0B1206A411C21622168007848602F
:1014C000E08C401E0004000CE084E3D12068C16879
:1014D00021F08001C1602068C16841F04001C16015
:1014E000D8E7206A0088C0F308004860206A801CA2
:1014F0002062E5E74006CDD55006CBD5CA68204628
:1015000022F04002CA6084F8413000F09FF8C1E741
:10151000AF1E000870B5040004D094F84100002507
:1015200010B106E0012070BD84F84050204600F064
:1015300023F8242084F841002068C16821F4005178
:10154000C160204600F044FD2068016921F490410B
:1015500001612068416921F02A0141612068C16868
:1015600041F40051C1606564202084F8410084F892
:1015700042006563002070BD30B585B00024009442
:101580000194029403940068184988422CD11848A9
:10159000816941F480418161816901F48041049154
:1015A000816941F0040181618069124D00F00400FD
:1015B00004904FF4007000900220019003200390EB
:1015C00069462846FFF74CF82815CDE9000469461E
:1015D00028460294FFF744F8002211462520FFF721
:1015E000ADF92520FFF79CF905B030BD003801406A
:1015F000001002400008014090F84230202B01D03A
:101600000220704721B11AB10023036300F03CBDF2
:101610000120704710B50068084988420CD108487D
:1016200000F0BEF90649012223310648FFF7E4FF26
:101630000549C889401CC88110BD00000038014020
:1016400058000020200100200C0000207047FEE719
:101650002DE9F04F85B000243A480094019402949B
:101660000394816941F010018161816901F01001E9
:101670000491816941F020018161816901F02001BB
:101680000491816941F004018161816901F00401E3
:101690000491816941F0080181618069DFF8A890B7
:1016A00000F008004FF400550490002229464846F7
:1016B000FFF7D3F8DFF894A040F60F170022394661
:1016C0005046FFF7CAF8DFF888B04BF22008002236
:1016D00041465846FFF7C1F80095022601250396BA
:1016E000CDE9015469464846FEF7BAFF00970396D4
:1016F000CDE9015469465046FEF7B2FFF0208DE86F
:10170000310069465046FEF7ABFF44F60F408DE8C6
:10171000310069465846FEF7A3FFCDF800800396D6
:10172000CDE9015469465846FEF79AFF1020CDE9ED
:101730000004694658460294FEF792FF05B0BDE8E2
:10174000F08F00000010024000100140000801402E
:10175000000C014010B586B0002417480094019495
:101760000294039404941349059401604721C0E94D
:1017700001144FF6FF71C0E9031444618461FFF75F
:10178000C5FB08B172B6FEE74FF480500090694681
:101790000948FFF745FC08B172B6FEE7049404A9B6
:1017A00005480594FFF77EFB002801D072B6FEE7DE
:1017B00006B010BD002C01409000002010B586B08E
:1017C00000241648009401940294039404944FF06A
:1017D0008041059401604721C0E9011440F2E731DE
:1017E000C0E903148461FFF791FB08B172B6FEE70C
:1017F0004FF48050009069460848FFF711FC08B18B
:1018000072B6FEE7049404A904480594FFF74AFB66
:10181000002801D072B6FEE706B010BDD800002047
:10182000FEE7FEE77047000070B5416309680446B3
:101830006FF040000860002084F8200084F8230046
:1018400084F8240084F8220084F82700608584F856
:101850002100208584F82C00FE2184F82510FF212A
:1018600084F8261020606060A060E0602061606104
:10187000A061494DE06110212846FEF7E1FF0028F4
:1018800077D0002094F82E10084384F82E002021F1
:101890002846FEF7D5FF00286DD0002094F82E10C2
:1018A00041EA400084F82E0040212846FEF7C8FF98
:1018B000F0B3002094F82E1041EA800084F82E0046
:1018C00080212846FEF7BCFF98B3002094F82E1024
:1018D000324D41EAC00084F82E0001212846FEF76F
:1018E000AFFF38B35FF0000094F82E1041EA00100B
:1018F00084F82E0002212846FEF7A2FFA8B300209C
:1019000094F82E1041EA401084F82E000421284655
:10191000FEF796FF58B3002094F82E1041EA80108D
:1019200084F82E004FF480612846FEF789FF02E01C
:1019300023E024E025E050B35FF0000094F82E107F
:1019400041EAC01084F82E004FF400612846FEF7EB
:1019500077FFF0B15FF0000014F82D1F08432070EE
:10196000208840BAA4F8030070BD0CE001E00CE050
:1019700001E0012086E7012090E701209AE701209D
:10198000A4E70120B0E70120BAE70120C4E7012065
:10199000D4E70120E0E7000000080140000C01400E
:1019A00010B590F82210012391B101290FD190F8C0
:1019B000242090F82310815490F8242000210F2A2D
:1019C00012D0521CD2B280F824200F2A17D810BD92
:1019D00090F8231090F825209142F8D1017080F8FA
:1019E000223080F8243010BDC27B90F82640A242FD
:1019F00005D180F82030418D491C418510BD80F80B
:101A0000241080F82010016041608160C16080F87E
:101A1000221010BDF0B50A220B6800241D4D03F002
:101A200040036FF040066B702B78012B01D0C3B1DF
:101A30002DE00B685B062AD590F82C305B1CDFB2DA
:101A4000002380F82C70102F07D180F82130048DEE
:101A5000641C048580F82C300124476B3F683E608D
:101A60002B7090F82130012B11D1436B1B681E6045
:101A700003E0521E12F0FF0202D00B681B06F8D5DD
:101A800090F82C201030105C48600120287020460F
:101A9000F0BD00000700002070B5184880780128CC
:101AA00007D0012000F0D6F8BDE870400220FEF714
:101AB000C5BD002401E0202C05D244F0800000F0D8
:101AC000C9F8802007E0A4F12000C0B240F08000F7
:101AD00000F0C0F8882000F0BDF80025002000F0DC
:101AE000D9F8002000F0D6F86D1CEDB2082DF5D322
:101AF000641CE4B2402CDED370BD00000000002066
:101B00002DE9F0410646002401E0202C18D20025E2
:101B100044F08008404600F09DF845F0800000F059
:101B200099F8680000EB0417F05D00F0B3F8B819FD
:101B3000407800F0AFF86D1CEDB2082DEAD31BE041
:101B4000A4F12000002540F0800800BF08F0FF004D
:101B500000F080F845F0880000F07CF8680000EBA9
:101B60000417F05D00F096F8B819407800F092F88C
:101B70006D1CEDB2082DE9D3641CE4B2402CC4D333
:101B8000BDE8F08110B5114C01280AD0002807D11A
:101B9000302000F05FF80120FEF750FD0020A0701B
:101BA00010BD302000F056F80120FEF747FD34202C
:101BB00000F050F80120FEF741FD362000F04AF811
:101BC0000120FEF73BFD0120E9E7000000000020B6
:101BD00070B51F4D4FF48074002221462846FEF751
:101BE0003CFE0A20FEF72AFD012221462846FEF788
:101BF00034FE3220FEF722FD302000F02BF86E205C
:101C000000F076FA302000F025F8282000F070FA75
:101C1000082000F01FF86E2000F06AFA012000F0A2
:101C200019F80C20FEF70AFD062000F013F8012039
:101C3000FEF704FD0C2000F00DF80120FEF7FEFC7D
:101C4000022000F007F8BDE870400120FEF7F6BC66
:101C50000008014070B501220D4E044615032946C7
:101C60003046FEF7FAFDF82000F054F804F0F000DA
:101C700000F050F82007000E00F04CF8322000F081
:101C800037FA29463046BDE870400022FEF7E5BD30
:101C9000000C014070B501220D4E04461503294683
:101CA0003046FEF7DAFDFA2000F034F804F0F000D8
:101CB00000F030F82007000E00F02CF8322000F081
:101CC00017FA29463046BDE870400022FEF7C5BD30
:101CD000000C014010B5144641F0800370B101289A
:101CE00004D0022805D0032808D105E041F0900374
:101CF00004E041F0880301E041F09803D8B2FFF717
:101D0000A9FF02E0641CFFF7C5FF20780028F9D185
:101D100010BD70472DE9F0410F4F002405464FF4E8
:101D200000487E1405FA04F0000601D5012200E007
:101D3000002241463846FEF790FD002231463846E3
:101D4000FEF78BFD012231463846FEF786FD641C06
:101D5000082CE7DBBDE8F081000C0140FEF788BDF0
:101D600030B58FB028216846FEF7F8FA14210AA88A
:101D7000FEF7F4FA01210804CDE9001000240294D2
:101D800002250491CDE907504FF4E0100990684610
:101D9000FEF7E2FE08B172B6FEE70F20CDE90A05B4
:101DA0004FF48060CDE90C4002210AA80E94FEF7A2
:101DB000F7FD002801D072B6FEE70FB030BD7047C6
:101DC0000148FFF79CB90000900000200148FFF790
:101DD00096B90000D8000020F0B50268164B174CE9
:101DE000174D4FF08047984205D0B84203D0A0422B
:101DF00001D0A84203D122F070064A6832439842CB
:101E000005D0B84203D0A04201D0A84203D122F4A9
:101E10004074CA6822434C6922F080022243026067
:101E20008A68C2620A688262984201D109690163C4
:101E300001214161F0BD0000002C01400004004080
:101E40000008004010B5846842EA032224F47F446D
:101E50000A432243826010BD826822F070020A4366
:101E600042F007018160704710B5036A046A24F0EC
:101E700001040462846924F0F00444EA021423F0AB
:101E80000A020A438461026210BD10B5036A046A43
:101E900024F010040462846923F0A00324F4704445
:101EA00044EA023243EA01118261016210BD10B5B9
:101EB000406A0021C185C184FFF7F4F910BD0168B3
:101EC0000C3151E8002F22F4907241E80023002BDE
:101ED000F5D10168143151E8002F22F0010241E8E8
:101EE0000023002BF5D1016B012909D101680C31C8
:101EF00051E8002F22F0100241E80023002BF5D119
:101F0000202180F8421000210163704708B590F845
:101F10004210222901D0022008BD82684FF480536C
:101F20009A4201D1016921B1816A9A421BD04AB11A
:101F30000AE00268816A5268C2F308020A80816A74
:101F4000891C08E0026972B10268526802F07F02DF
:101F50000A70816A491C8162C18D491E0904090CFD
:101F6000C18503D01BE002685268F1E70168CA68C6
:101F700022F02002CA600168CA6822F48072CA6036
:101F800001684A6922F001024A61202180F842106A
:101F900000214163026B012A03D0FFF73BFB0020C5
:101FA00008BD016301680C3151E8002F22F01002D6
:101FB00041E80023002BF5D101680A68D20602D55A
:101FC0000A6849680091818DFFF76BF9E7E7000027
:101FD00070B5044600680169E26821F4405111437C
:101FE00001612169A0680843616908432168CA68E2
:101FF00041F20C639A430243CA6020684169A269B6
:1020000021F44071114341611E492068884202D188
:10201000FEF76CFD01E0FEF759FD00EBC00101EB9E
:102020000012606864218000B2FBF0F3B3FBF1F3AF
:102030006FF018067343B2FBF0F5B2FBF0F605EB58
:102040008305322303EB0515B5FBF1F5B6FBF1F67D
:1020500005F0F00505EB0615B2FBF0F6B2FBF0F06B
:10206000B0FBF1F06FF01802504306EB800003EB79
:102070000010B0FBF1F0216800F00F0028448860E8
:1020800070BD00000038014081628285C285002158
:102090004164222180F84210016921B10168CA68B7
:1020A00042F48072CA6001684A6942F001024A61E2
:1020B0000068C16841F02001C16000207047000045
:1020C0000148FFF7F1B8000020010020FEE70907F2
:1020D000090E002804DB00F1E02080F800147047AE
:1020E00000F00F0000F1E02080F8141D70470000A0
:1020F000044900220B685A6209684A6A8242FCD38A
:102100007047000090000020FEF7BAFBFFF728FEA2
:10211000FFF79EFAFFF71EFBFE48FD490025016010
:102120004FF4E131C0E901150C21C560C0E904514B
:102130008561C561FFF7EEF908B172B6FEE7FFF7FA
:102140003DFBF449F448FFF76FFBF34CF14E883642
:10215000208E30805FF0010000F5967126F8101097
:10216000401CC0B20628F7D3EC4F4FF48041EC4836
:102170007D633D87FEF764FB00287DD00020387129
:10218000E448103840F8585F45608560C5600561D7
:1021900045618561C561056245628562C562DD484C
:1021A00070308560C56005614561A0F58070FEF7FF
:1021B0000BFFFFF70DFD0120FFF7E4FCD948FFF707
:1021C0009FFC4FF4FA684046FEF738FA0020FFF70C
:1021D000D9FCFFF761FCCF48D3A14830FEF714F8D3
:1021E000CC48D4A15830FEF70FF8CA48228ED4A1AB
:1021F0006830FEF709F8C748D3A17830FEF704F835
:10220000C44A002148320846FFF764FDC14A002154
:1022100058320120FFF75EFDBE4A002168320220DD
:10222000FFF758FDBB4A002178320320FFF752FD2B
:102230004046FEF703FA00222021B948FEF70DFBC5
:10224000DFF81493002201214846FEF706FB002226
:1022500008214846FEF701FB002204214846FEF70C
:10226000FCFA002202214846FEF7F7FAA94848384E
:10227000FEF7AAFE012200E049E0A749A548233164
:10228000FFF7BAF900224FF400614846FEF7E5FA7D
:10229000DFF888A2A0460AF1340A4FF0010B9F4CE8
:1022A000A089642835D30122D1024846FEF7D5FA29
:1022B000208A401C80B22082062801D3A4F810B0E6
:1022C00098F8250088F81000208A474636F8100054
:1022D000010A88F8111088F81200AA2088F8130063
:1022E0000420FF213A18401CC0B211740E28F9D303
:1022F000FDF750FF642190FBF1F201FB1200B8776B
:1023000097F82600F87787F821B0A58105E001202D
:1023100035E798F8210001280FD14FF4FA627C4983
:102320007D48FFF777FB40B1606A0022401C606285
:102330004FF400614846FEF790FA98F820004746AF
:10234000012816D1A06A4FEA0A02401CA062B7F821
:1023500001003B7941BA012036F810C08C4500D10C
:102360001354401CC0B20628F6D387F8205087F8D3
:1023700022506089B0F57A7F62D366486581202259
:1023800010214830FDF7E2FF62482022102158302A
:10239000FDF7DCFF5F48202210216830FDF7D6FFF3
:1023A0005C48202210217830FDF7D0FF594A0021E7
:1023B00048320846FFF78EFC564A00215832012069
:1023C000FFF788FC534A002168320220FFF782FCA5
:1023D000504A002178320320FFF77CFC4D483A8EAA
:1023E0005EA14830FDF710FF4A48628A5FA158306D
:1023F000FDF70AFF2078012840D046485FA16830E9
:10240000FDF702FF4348202210217830FDF79EFFA0
:10241000404A002148320846FFF75CFC3D4A002153
:1024200058320120FFF756FC3A4A00216832022058
:10243000FFF750FC374A002178320320FFF74AFCAF
:102440002089322809D325814FF400514F48FEF7E7
:10245000FCF9D4E90901401AE062314F10213846F5
:10246000FEF7EEF9E07008213846FEF7E9F980B191
:1024700000206071A17801290DD0ADE0254844A16C
:102480006830FDF7C1FE234844A17830FDF7BCFE5B
:10249000BEE70120EDE7E17939B9E278012A0CD0F5
:1024A000A582257023788AF8003008B1A079A0B100
:1024B0006583A079012824D080E0A28AB2F5FA6F62
:1024C00008D0521C92B2A282022AEBD1628A521C1C
:1024D0006282E7E784F800B0E4E72078012801D0C1
:1024E00065826BE0608B642802D0401C608365E0ED
:1024F000584684F806B049B1E5716582206B401CEE
:102500002063A08B401C80B2A08351E069E00000F2
:102510000038014020010020580000200C0000205D
:10252000000C01407626000858494E204348414F90
:10253000000000004D414348204D414E470000003F
:1025400049443A20256400005649455454454C20DE
:10255000504F535400000000000801404944204DF2
:1025600061737465723A202564000000536F206C1B
:10257000756F6E673A202564200000004D616E671C
:10258000204368756120446179000000001001401B
:102590004D616E672044617900000000585858581A
:1025A000585858585858585858585858000000000B
:1025B00040F6B831884201D3A571A58300210846B1
:1025C00053461A5C401C1144C0B289B20628F8D3A5
:1025D00059B184F801B0A5702078012807D00022F5
:1025E00008E0E0718AF8005088E76570F3E7E07969
:1025F00028B1012220213846FEF72FF908E0208B70
:10260000B0F5FA7F04D3258320213846FEF71DF963
:102610006078012815D0002201214C464846FEF77B
:102620001CF9002208212046FEF717F90022042198
:102630002046FEF712F9002202212046FEF70DF98E
:102640002DE6207920B1012211464846FEF705F912
:10265000E08AB0F5FA7FF3D308214F464846FEF7EB
:10266000F4F804213846FEF7F0F802213846FEF768
:10267000ECF8E58213E6FFFFFFFFFFFFFFFFFFFF20
:10268000FFFFFFFFFFFFFFFFFFFFFFFFFFFFFFFF5A
:10269000FFFFFFFFFFFFFFFFFFFFFFFFFFFFFFFF4A
:1026A000FFFFFFFFFFFFFFFFFFFFFFFFFFFFFFFF3A
:1026B000FFFFFFFFFFFFFFFFFFFFFFFFFFFFFFFF2A
:1026C000FFFFFFFFFFFFFFFFFFFFFFFFFFFFFFFF1A
:1026D000FFFFFFFFFFFFFFFFFFC3FFFFFFFFFFFF46
:1026E000FFFFFFFFFFFFFFFFFFC3FFFFFFE3FFC78A
:1026F000FFFFFFF87FFFFFFFFFC3FFFFFFE1FF8743
:10270000FFFFFFF87FFFFFFFFFDFFFFFFFE1FF8716
:10271000FFFFFFF87FFFFFFFFFFFFFFFFFE1FF87E6
:10272000FFFFFFF87FFFFFFFFFFFFFFFFFC1FF83FA
:10273000FFFFFFF87FFFE1FFF0C3FC003F00000058
:102740000FC003F87FFFE1FFF0C3F0000F000000AF
:102750001F0000F87FFFF0FFE1C3E07C07C1FF83AB
:10276000FE07C0787FFFF0FFE1C3C1FF07E1FF87ED
:10277000FC1FF0787FFFF0FFC3C3C3FF87E1FF8733
:10278000FC3FF8787FFFF87FC3C3C3FF83E1FF8777
:10279000FC3FF8387FFFF87F87C3C3FF83E1FF87E3
:1027A000FC3FF8387FFFFC3F87C3C3FF83E1FF870F
:1027B000FC3FF8387FFFFC3F8FC3C20003E1FF8777
:1027C000F82000787FFFFE3F0FC3C00007E1FF87BE
:1027D000FC0000787FFFFE1F0FC3C3FFFFE1FF87F0
:1027E000FC3FFFF87FFFFF1E1FC3C3FFFFE1FF8712
:1027F000FC3FFFF87FFFFF0E1FC3C3FFFFE1FF8712
:10280000FC3FFFF87FFFFF0E3FC3C3FFFFE1FF83E5
:10281000FC3FFFF87FFFFF843FC3C3FFFFE1FFC31F
:10282000FC3FFFF83FFFFF807FC3C1FFFFE0FFC118
:10283000FC1FFFFC1FFFFFC07FC3E00007F007C0C5
:102840000E00007C01FFFFC0FFC3F00007F807E0A7
:102850000F00007E01FFFFE0FFC3FC0007FE0FF842
:102860001FC0007F81FFFFFFFFFFFFFFFFFFFFFF94
:10287000FFFFFFFFFFFFFFFFFFFFFFFFFFFFFFFF68
:10288000FFFFFFFFFFFFFFFFFFFFFFFFFFFFFFFF58
:10289000FFFFFFFFFFFFFFFFFFFFFFFFFFFFFFFF48
:1028A000FFFFFFFFFFFFFFFFFFFFFFFFFFFFFFFF38
:1028B000FFFFFFFFFFFFFFFFFFFFFFFFFFFFFFFF28
:1028C000FFFFFFFFFFFFFFFFFFFFFFFFFFFFFFFF18
:1028D000FFFFFFFFFFFFFFFFFFFFFFFFFFFFFFFF08
:1028E000FFFFFFFFFFFFFFFFFFFFFFFFFFFFFFFFF8
:1028F000FFFFFFFFFFFFFFFFFFFFFFFFFFFFFFFFE8
:10290000FFFFFFFFFFFFFFFFFFFFFFFFFFFFFFFFD7
:10291000FFFFFFFFFFFFFFFFFFFFFFFFFFFFFFFFC7
:10292000FFFFFFFFFFFFFFFFFFFFFFFFFFFFFFFFB7
:10293000FFFFFFFFF7FFFFFFFFFFFFFFFFFFFFFFAF
:10294000FFFFFFFFF7FFFFFFFFFFFFFFFFFFFFFF9F
:10295000FFFFFFFFF7FFFFFFFFFFFFFFFFFFFFFF8F
:10296000FE07C1E060FFFFFFFFFFFFFFFFFFFFFF6C
:10297000FC631CCFE3FFFFFFFFFFFFFFFFFFFFFF35
:10298000FCFB3E4FF7FFFFFFFFFFFFFFFFFFFFFFD7
:10299000FCF97E4FF7FFFFFFFFFFFFFFFFFFFFFF89
:1029A000FCF97E60F7FFFFFFFFFFFFFFFFFFFFFF68
:1029B000FCF97E7C37FFFFFFFFFFFFFFFFFFFFFFFC
:1029C000FCFB7E7F37FFFFFFFFFFFFFFFFFFFFFFE7
:1029D000FCF33C7F33FFFFFFFFFFFFFFFFFFFFFF25
:1029E000FC0780C030FFFFFFFFFFFFFFFFFFFFFF7F
:1029F000FCFFFFFFFFFFFFFFFFFFFFFFFFFFFFFFEA
:102A0000FCFFFFFFFFFFFFFFFFFFFFFFFFFFFFFFD9
:102A1000FCFFFFFFFFFFFFFFFFFFFFFFFFFFFFFFC9
:102A2000FFFFFFFFFFFFFFFFFFFFFFFFFFFFFFFFB6
:102A3000FFFFFFFFFFFFFFFFFFFFFFFFFFFFFFFFA6
:102A4000FFFFFFFFFFFFFFFFFFFFFFFFFFFFFFFF96
:102A5000FFFFFFFFFFFFFFFFFFFFFFFFFFFFFFFF86
:102A6000FFFFFFFFFFFFFFFFFFFFFFFFFFFFFFFF76
:102A7000FFFFFFFFFFFF010202030405060708092D
:102A80000A0B0C0D0E0F10100000000000000000DB
:102A90000102030406070809000000000102030404
:102AA000C02A00080000002058000000280100088B
:102AB000182B000858000020A0080000440100085E
:102AC0004080000000000000000000000000000046
:102AD00000000000000000000000000001000000F5
:102AE00000000000000000000000000000000000E6
:102AF00000000000000000000000000000000000D6
:102B000000000000000000000100000010000000B4
:082B1000000000000024F400A5
:04000005080000ED02
:00000001FF
